:020000040800F2
:10000000F8590020B101000825390008FD25000835
:10001000213900086B030008C143000800000000FC
:100020000000000000000000000000002B39000864
:100030008B04000800000000293900082D39000851
:10004000CB010008CB010008CB010008CB01000860
:10005000CB010008CB010008CB010008CB01000850
:10006000CB010008CB010008CB010008CB01000840
:10007000CB010008CB010008CB010008CB01000830
:10008000CB01000871030008CB010008000000004C
:10009000000000000000000000000000CB0100088C
:1000A000CB010008CB010008CB010008CB01000800
:1000B000CB010008CB010008CB0100084526000851
:1000C000CB010008CB010008CB010008CB010008E0
:1000D000CB010008CB010008CB01000800000000A4
:1000E000CB010008CB010008CB0100080000000094
:1000F000000000000000000000000000CB0100082C
:1001000000000000CB010008CB010008CB01000873
:1001100000000000000000000000000000000000DF
:10012000CB010008CB010008CB010008CB0100087F
:10013000CB010008000000000000000000000000EB
:10014000000000000000000000000000CB010008DB
:10015000CB010008CB010008CB0100086143000877
:10016000CB010008CB0100080000000000000000E7
:10017000000000000000000000000000000000007F
:1001800000000000CB01000800000000000000009B
:10019000CB010008CB010008DFF810D000F0A4F874
:1001A00000480047A1480008AFF30080F85900203C
:1001B0000648804706480047FEE7FEE7FEE7FEE701
:1001C000FEE7FEE7FEE7FEE7FEE7FEE7A53A0008EA
:1001D000990100082DE9F05F0546002092469B46F4
:1001E00088460646814640241BE02846414647464D
:1001F000224600F069F853465A46C01A914110D37E
:1002000011461846224600F050F82D1A67EB0108F7
:100210004F4622460120002100F047F817EB000965
:100220004E41201EA4F10104DFDC484631462A4637
:100230004346BDE8F09F40EA01039B0703D009E075
:1002400008C9121F08C0042AFAD203E011F8013BC2
:1002500000F8013B521EF9D27047D2B201E000F81B
:10026000012B491EFBD270470022F6E710B513465A
:100270000A4604461946FFF7F0FF204610BD30B588
:100280000B46014600202022012409E021FA02F554
:100290009D4205D303FA02F5491B04FA02F52844EE
:1002A000151EA2F10102F1DC30BD202A04DB203A48
:1002B00000FA02F1002070479140C2F1200320FAB9
:1002C00003F3194390407047202A04DB203A21FAB7
:1002D00002F00021704721FA02F3D040C2F120025F
:1002E0009140084319467047064C074D06E0E06808
:1002F00040F0010394E8070098471034AC42F6D36D
:10030000FFF74EFF785E0008985E000870B58D1804
:1003100010F8014B14F0030201D110F8012B231146
:1003200006D110F8013B03E010F8016B01F8016BF6
:10033000521EF9D1ABB110F8012B04F00C048A1A4B
:100340000C2C03D0A2EB84129B1C08E010F8014B8C
:10035000A2EB0422F8E712F8014B01F8014B5B1EF7
:10036000F9D5A942D4D3002070BD00BFFEE700003C
:1003700010B5024800F0C0F910BD00004055002043
:100380000146087810381823B0FBF3F20848805C67
:10039000C865032A05D908686FF30900001D886540
:1003A00003E008686FF309008865886D70470000F6
:1003B000565E0008014600208A6A8B69CBB932B1CB
:1003C000012A0DD0022A03D0032A10D10EE000BF6B
:1003D000CB6A03F08073B3F1807F00D1012007E086
:1003E000CB6AB3F1C07F00D1012001E000E000BF83
:1003F00034E08B69B3F5005F1AD132B1012A07D01E
:10040000022A03D0032A11D10AE000BF01200EE026
:10041000CB6A03F08073B3F1807F00D1012006E046
:10042000CB6AB3F1C07F00D1012000E000BF15E02E
:1004300032B1012A05D0022A04D0032A0CD103E0EC
:1004400000BF00BF012008E0CB6A03F08073B3F166
:10045000807F00D1012000E000BF00BF704730B5B1
:100460000468246824F4802405682C6004686360B0
:100470008468402C04D10468A2600468E16003E051
:100480000468A1600468E26030BD704772B600BFC6
:10049000FEE710B505F0CEF804F05CF904F068FC56
:1004A00004F00CFE10BD00B500F01FF800F007F8D6
:1004B00000BD00B500F024F800F00CF800BD00B558
:1004C000032000F029F8042000F026F8052000F0B1
:1004D00023F800BD00B5032000F024F8042000F04C
:1004E00021F8052000F01EF800BD00B5002000F046
:1004F00013F8012000F010F8022000F00DF800BD04
:1005000000B5002000F00EF8012000F00BF80220EA
:1005100000F008F800BD00000121014A11547047A5
:10052000B41100200221014A11547047B411002077
:1005300010B54FF496715F48FFF796FE5E480021B4
:100540000160818008205D490883042048830820D9
:100550008883088404204884082088840020088137
:10056000FE215648418120218181202053498880E5
:100570000820C880022008800420488000205049BC
:1005800008704E48007E48704C48007E4B49897E7A
:1005900008444B4988704948007E4849897E084490
:1005A0004649097F08444649C8704448007E43498B
:1005B000897E08444149097F0844404991F8201048
:1005C00008443F4908713D48007E3C49897E084403
:1005D0003A49097F0844394991F8201008443749BD
:1005E00091F822100844364948713448007E401E74
:1005F000344908703148007E3049897E0844401EE5
:10060000304948702D48007E2C49897E08442B498A
:10061000097F0844401E2B4988702848007E2749DE
:10062000897E08442549097F0844244991F820100F
:100630000844401E2349C8702048007E1F49897E17
:1006400008441E49097F08441C4991F820100844B9
:100650001A4991F822100844401E1A490871174897
:10066000007E1649897E08441449097F08441349CD
:1006700091F820100844114991F8221008440F49BC
:1006800091F824100844401E0E4948710C48007827
:10069000094908700A48407848700948807888708D
:1006A0000748C078C8700648007908710448407946
:1006B000487110BD40530020AE110020404F002073
:1006C000981100209E110020014691F83500022863
:1006D00003D08020486501207047052081F835004F
:1006E0000868006820F001000A6810600020F3E745
:1006F000014691F835007047F8B504460020009097
:100700008C4800684FF41651B0FBF1F7A56D2E68C8
:1007100094F85C1008208840304098B12068006848
:1007200000F0040070B12068006820F00400216827
:10073000086094F85C1008208840A860606D40F064
:100740000100606594F85C1001208840304068B179
:100750002068406900F0800040B194F85C100120EE
:100760008840A860606D40F00200606594F85C10FD
:1007700004208840304068B12068006800F0020022
:1007800040B194F85C1004208840A860606D40F08F
:100790000400606594F85C1010208840304078B305
:1007A0002068006800F0080050B394F85C10102036
:1007B0008840A8602068006800F4802080B120682C
:1007C000006800F4002028B9206CC8B12046216CD4
:1007D000884715E0A06C98B12046A16C88470FE0CF
:1007E0002068006800F4807028B92068006820F054
:1007F000080021680860206C10B12046216C8847F1
:1008000094F85C10202088403040002865D0206893
:10081000006800F0100000285FD094F85C102020E1
:100820008840A86094F83500052828D12068006821
:1008300020F01600216808602068406920F08000E0
:1008400021684861206C08B9A06C28B12068006854
:1008500020F008002168086094F85C103F20884070
:10086000A86000BF002084F8340000BF012084F895
:100870003500206D10B12046216D8847F8BD2068F5
:10088000006800F4802080B12068006800F4002037
:1008900028B9606C10B12046616C88471DE0E06BA0
:1008A000D8B12046E16B884717E02068006800F463
:1008B000807068B92068006820F010002168086026
:1008C00000BF002084F8340000BF012084F8350008
:1008D000E06B10B12046E16B8847606D38B3606D06
:1008E00000F00100F0B1052084F8350020680068B0
:1008F00020F001002168086000BF0098401C0090B3
:10090000B84200D905E02068006800F00100002826
:10091000F3D100BF00BF002084F8340000BF0120E5
:1009200084F83500E06C10B12046E16C884700BFC8
:10093000A4E70000DC1100202DE9F0410446002569
:1009400000F0C6F9074614B90120BDE8F081606ADD
:1009500000B100BF00BF002084F8340000BF0220B7
:1009600084F835002068006820F0010021680860E4
:100970000AE000F0ADF9C01B052805D9202060650C
:10098000032084F83500E0E72068006800F00100EB
:100990000028EED12068056821480540D4E901010E
:1009A0000843E16808432169084361690843A16974
:1009B0000843E1690843216A08430543606A042843
:1009C00003D1D4E90B010843054320680560206882
:1009D000456925F00705606A0543606A04280DD162
:1009E000A06A0543E06A48B12046FFF7E3FC28B15E
:1009F00040206065012084F83500A6E72068456145
:100A00002046FFF7BDFC064694F85C103F20884066
:100A1000B06000206065012084F83500002094E774
:100A20003F8010F02DE9F04704460D4616461F465C
:100A30004FF00008D4F8589000BF94F83400012813
:100A400002D10220BDE8F087012084F8340000BF05
:100A500094F83500012825D1022084F835000020C3
:100A600060653B46324629462046FFF7F8FC94F87D
:100A70005C103F208840C9F808002068006840F0FA
:100A8000160021680860206C28B12068006840F0DA
:100A90000800216808602068006840F001002168B3
:100AA000086006E000BF002084F8340000BF4FF06B
:100AB00002084046C6E7000070B5044600F008F999
:100AC00006462546681C10B104480078054400BF5E
:100AD00000F0FEF8801BA842FAD370BDD8110020A8
:100AE000F8B503460A460025002400200021CDE089
:100AF000012606FA01F5166806EA0504AC4273D130
:100B00005668012E08D05668022E05D05668112E60
:100B100002D05668122E13D198684F000326BE40AB
:100B2000B0434F00D668BE403043986058680126F5
:100B30008E40B0431679C6F300168E40304358609D
:100B4000D8684F000326BE40B0434F009668BE40B1
:100B50003043D8605668022E02D05668122E13D148
:100B6000CF0803F1200656F827004E07F70E0F2690
:100B7000BE40B0434F07FF0E1669BE403043CF085A
:100B800003F1200646F8270018684F000326BE40F0
:100B9000B043167906F003064F00BE40304318609C
:100BA000566806F08056B6F1805F6ED100BF002611
:100BB0000096384E366846F48046364F3E603E46D4
:100BC000366806F48046009600BF00BF324E8F089C
:100BD00056F827008E07370F0F26BE40B0432F4E22
:100BE000B34202D1002615E04FE02D4EB34201D1B1
:100BF00001260FE02B4EB34201D102260AE02A4E15
:100C0000B34201D1032605E0284EB34201D10426A8
:100C100000E007268F073F0FBE4030431E4E8F086F
:100C200046F82700224E3068A043566806F4803606
:100C3000B6F5803F00D120431D4E3060361D306830
:100C4000A043566806F40036B6F5003F00D12043B5
:100C5000174E361D3060361D3068A043566806F4C6
:100C60008016B6F5801F00D12043114E0836306043
:100C7000361D3068A043566806F40016B6F5001F0E
:100C800000D120430A4E0C363060491C1029FFF475
:100C90002FAFF8BD44380240083801400000024040
:100CA0000004024000080240000C02400010024014
:100CB000003C0140024613690B400BB1012000E0EB
:100CC000002070470AB1816101E00B048361704725
:100CD0000148006870470000D0110020704770473D
:100CE0002DE9F04705464FF0000828684668D5F81A
:100CF0002C9095F83E7095F83DA0102F01D0402F14
:100D00007FD12868D0F818802868446904F0010071
:100D100060B9B9F52A0F02D0B9F12A4F01D10120EB
:100D200000E00020012801D1BDE8F08704F00100B7
:100D300048B1C6F3402030B1284601F08BFC28466C
:100D400002F005F9B4E0C4F3C00030B1C6F34020AE
:100D500018B1284601F0B2FFAAE0C4F3400030B158
:100D6000C6F3402018B1284601F0BDFFA0E0C8F34B
:100D7000800028B32868406800F40060B0F5006F78
:100D8000E0D0C4F3C01048B1C6F3802030B1C4F342
:100D9000800018B9284601F025FF89E0C4F38000DF
:100DA0000028CFD0C6F340200028CBD0102F03D18D
:100DB000284601F0D2FE7BE0284602F017F977E0E2
:100DC0002868406800F40060B0F5006F70D0C4F38C
:100DD000801050B1C6F3802038B1C4F3800020B930
:100DE000284601F049FE63E00BE0C4F380000028D0
:100DF0005ED0C6F3402000285AD0284601F0A9FD55
:100E000056E0286C10B12868446904E02868D0F8DE
:100E1000188028684469C4F3400060B1C6F34020DC
:100E200048B1286C10B12868D0F81880414628468F
:100E300002F008FA3CE0C4F3001030B1C6F34020E1
:100E400018B1284602F032FA32E0BAF1210F02D08E
:100E5000BAF1290F16D1C4F3C01048B1C6F38020EF
:100E600030B1C4F3800018B9284602F0C8F91FE079
:100E7000C4F38000E0B1C6F34020C8B1284602F0B8
:100E8000B1F915E0C4F3801048B1C6F3802030B149
:100E9000C4F3800018B9284602F081F908E0C4F3D1
:100EA000800028B1C6F3402010B1284602F06AF94C
:100EB00000BF39E77047000070B504460CB9012047
:100EC00070BD94F83D0028B9002084F83C0020460D
:100ED00000F092F9242084F83D002068006820F09A
:100EE0000100216808602068006840F40040216823
:100EF00008602068006820F400402168086000F065
:100F000067FB05465C496068884206D85B488542B5
:100F100001D2012007E0002005E05948854201D2B6
:100F2000012000E00020012800D1C9E75548B5FBA9
:100F3000F0F62068406820F03F00304321684860A8
:100F40004D496068884201D8701C07E04FF49670E4
:100F500070434FF47A71B0FBF1F0401C2168096ACC
:100F600021F03F01084321680862434960688842D4
:100F700014D8681E61684900B0FBF1F0401CC0F352
:100F80000B00042801D204203DE0681E616849007E
:100F9000B0FBF1F0401CC0F30B0034E0A06838B99E
:100FA000681E616801EB4101B0FBF1F0401C0AE0F2
:100FB000681E616801EBC10202EB0111B0FBF1F0A8
:100FC000401C40F48040C0F30B0008B901201AE037
:100FD000A06848B9681E616801EB4101B0FBF1F0FF
:100FE000401CC0F30B000CE0681E616801EBC102FD
:100FF00002EB0111B0FBF1F0401CC0F30B0040F418
:10100000804040F400402168C9694CF6FF7291436A
:1010100008432168C861D4E90701084321680968C9
:1010200021F0C001084321680860D4E90310084397
:101030002168896848F2FF3291430843216888603B
:10104000D4E9050108432168C96821F0FF0108437C
:101050002168C8602068006840F0010021680860CD
:1010600000202064202084F83D000020206384F8C4
:101070003E0000BF24E70000A086010080841E001F
:1010800000093D0040420F007047704770477047AD
:10109000704700002DE9FC5F04460F4690469946D4
:1010A000DDE90CAB0E9EFFF713FE054694F83D00FC
:1010B00020287DD1192301224D492046009502F0B8
:1010C000E9F910B10220BDE8FC9F00BF94F83C0094
:1010D000012801D10220F6E7012084F83C0000BF7E
:1010E0002068006800F0010028B92068006840F01E
:1010F0000100216808602068006820F40060216811
:101100000860212084F83D00402084F83E00002043
:101110002064C4F824A0A4F82AB0608D2085354846
:10112000E0624B46424639462046CDE9006501F073
:10113000B9FF08B10120C6E731E02A463146204612
:1011400002F076FA50B1206C042805D120680068BE
:1011500040F40070216808600120B4E7606A0078FC
:1011600021680861606A401C6062208D401E2085F5
:10117000608D401E608520684069C0F3800070B1BA
:10118000208D60B1606A007821680861606A401C47
:101190006062208D401E2085608D401E6085208D00
:1011A0000028CAD12A463146204602F045F900E01F
:1011B0001CE050B1206C042805D12068006840F480
:1011C00000702168086001207DE72068006840F415
:1011D000007021680860202084F83D00002084F819
:1011E0003E0000BF84F83C0000BF6CE702206AE7C5
:1011F000020010000000FFFF10B586B00446142165
:1012000001A8FFF731F81F492068884237D100BF95
:10121000002000901C48006840F002001A49086055
:101220000846006800F00200009000BF00BFC02028
:1012300001901220029001200390032004900420CA
:10124000059001A91148FFF74BFC00BF002000905A
:101250000D481030006840F400100B491031086050
:101260000846006800F40010009000BF00BF002294
:1012700011461F2000F092F81F2000F07FF806B002
:1012800010BD00000054004030380240000402400D
:1012900070477047034800680349097808440149CA
:1012A00008607047D0110020D811002010B50D48FB
:1012B000006840F400700B4908600846006840F47C
:1012C000806008600846006840F480700860032071
:1012D00000F0A2F8002000F007F800F02BF8002042
:1012E00010BD0000003C024070B504460E48007876
:1012F0004FF47A71B1FBF0F00C490968B1FBF0F5DD
:10130000284600F021FC08B1012070BD102C07D246
:1013100000222146501E00F041F80548046001E01B
:101320000120F2E70020F0E7D8110020DC110020B6
:10133000D411002008B500BF002000900E480068BE
:1013400040F480400C4908600846006800F4804082
:10135000009000BF00BF00BF00200090081F006881
:1013600040F08050091F08600846006800F0805077
:10137000009000BF00BF08BD443802400146084647
:10138000002809DB00F01F0301229A4043099B005B
:1013900003F1E023C3F8002100BF70472DE9F05F9F
:1013A00080460D461646002703F020F807463946CA
:1013B0002A46334601F00700C0F1070ABAF1040FCC
:1013C00002D94FF0040A01E0C0F1070AD14600F14A
:1013D000040ABAF1070F02D24FF0000A01E0A0F1AF
:1013E000030AD4464FF0010A0AFA09FAAAF1010ADF
:1013F0000AEA020A0AFA0CFA4FF0010B0BFA0CFB8C
:10140000ABF1010B0BEA030B4AEA0B042146404601
:1014100002F0F4FFBDE8F09F00BF00F00702064BAA
:1014200019684FF6FF031940044B0B4343EA0221AE
:10143000014B196000BF70470CED00E00000FA0599
:1014400070B504460D460CB9012070BD58480068BF
:1014500000F00F00A84209D255490D7008460068F7
:1014600000F00F00A84201D00120EEE7207800F044
:10147000020002281DD1207800F00400042805D1C4
:101480004C48006840F4E0504A490860207800F079
:101490000800082805D14748006840F460404549E5
:1014A00008604448006820F0F000A1680843414902
:1014B0000860207800F00100A8B36068012807D117
:1014C0003C4808380068C0F34040B8B90120BCE788
:1014D0006068022802D06068032807D135480838C0
:1014E0000068C0F3406048B90120AEE731480838D1
:1014F0000068C0F3400008B90120A6E72D48006845
:1015000020F00300616808432A490860FFF7E0FB08
:10151000064609E0FFF7DCFB801B41F28831884278
:1015200002D9032091E707E02248006800F00C0090
:101530006168B0EB810FEDD11D48006800F00F002D
:10154000A84209D91A490D700846006800F00F003A
:10155000A84201D0012078E7207800F00400042898
:1015600007D11448006820F4E050E16808431149AD
:101570000860207800F00800082808D10D480068AD
:1015800020F46040216940EAC1000A49086000F087
:101590003FF808490968C1F30311074A515CC84084
:1015A0000649086006480068FFF79EFE00204CE7E9
:1015B000003C0240083802405E5E0008DC1100205A
:1015C000D41100200148006870470000DC110020A1
:1015D00000B5FFF7F7FF04490968C1F38221034A08
:1015E000515CC84000BD0000083802406E5E000833
:1015F00000B5FFF7E7FF04490968C1F34231034A28
:10160000515CC84000BD0000083802406E5E000812
:101610002DE9F047002400250026A1462548006852
:1016200000F00C0020B1042805D008283AD105E0CC
:10163000DFF8849039E0DFF8849036E01D48001F21
:10164000006800F03F041B48001F006800F48000A1
:1016500078B11A481749091F0968C1F38811A0FB1E
:1016600001700146224600233846FEF7B3FD0546C9
:101670000EE011480F49091F0968C1F38811A0FB4A
:1016800001700146224600233846FEF7A3FD0546B9
:101690000848001F0068C0F30140401C4600B5FB2D
:1016A000F6F902E0DFF8109000BF00BF4846BDE841
:1016B000F0870000083802400024F40040787D01E3
:1016C000F8B504460CB90120F8BD207800F00100FF
:1016D000002874D0F948006800F00C0004280DD0F0
:1016E000F648006800F00C00082813D1F348001FEA
:1016F000006800F48000B0F5800F0BD1EF48083887
:101700000068C0F34040002859D06068002856D1D6
:101710000120D9E700BF6068B0F5803F08D1E748F5
:101720000838006840F48030E449083908601EE059
:101730006068B0F5A02F0DD1E0480838006840F48B
:101740008020DE49083908600846006840F480308F
:1017500008600CE0D9480838006820F48030D74988
:10176000083908600846006820F48020086000BF3F
:10177000606890B1FFF7ACFA054606E0FFF7A8FAFB
:10178000401B642801D903209EE7CC480838006834
:10179000C0F340400028F1D011E0FFF799FA054668
:1017A00006E0FFF795FA401B642801D903208BE778
:1017B000C24808380068C0F340400028F1D12078C2
:1017C00000F0020002285FD1BC48006800F00C0065
:1017D00058B1BA48006800F00C0008281CD1B7487E
:1017E000001F006800F48000B0B9B44808380068F1
:1017F000C0F3400020B1E068012801D0012063E778
:10180000AE480838006820F0F800216940EAC100BD
:10181000AA490839086037E0E06800B30120A84908
:101820000860FFF755FA054606E0FFF751FA401B3E
:10183000022801D9032047E7A04808380068C0F310
:1018400040000028F1D09D480838006820F0F800DA
:10185000216940EAC10099490839086014E0002074
:1018600097490860FFF734FA054606E0FFF730FABB
:10187000401B022801D9032026E790480838006859
:10188000C0F340000028F1D1207800F008000828BB
:101890002CD16069A8B101208A490860FFF718FAC5
:1018A000054606E0FFF714FA401B022801D9032081
:1018B0000AE782486C300068C0F340000028F1D08D
:1018C00014E000207F490860FFF702FA054606E0B1
:1018D000FFF7FEF9401B022801D90320F4E6774800
:1018E0006C300068C0F340000028F1D1207800F08F
:1018F0000400042870D1002770483830006800F0D8
:10190000805090B900BF002000906C4838300068CB
:1019100040F080506949383108600846006800F09E
:101920008050009000BF00BF01276748006800F4A6
:101930008070B0B96448006840F480706249086003
:10194000FFF7C6F9054606E0FFF7C2F9401B02287B
:1019500001D90320B8E65C48006800F480700028D4
:10196000F2D000BFA068012808D154486830006850
:1019700040F001005149683108601DE0A068052869
:101980000DD14E486830006840F004004B49683182
:1019900008600846006840F0010008600CE0474815
:1019A0006830006820F0010044496831086008464A
:1019B000006820F00400086000BFA068A8B1FFF72D
:1019C00087F9054609E0FFF783F9401B41F28831AA
:1019D000884202D9032077E626E03848683000685C
:1019E000C0F340000028EED013E0FFF771F9054680
:1019F00008E0FFF76DF9401B41F28831884201D9B8
:101A0000032061E62D4868300068C0F340000028DC
:101A1000EFD1012F07D129483830006820F08050DD
:101A200026493831086000BFA069002845D0234806
:101A3000006800F00C0008285DD0A069022845D19C
:101A400000201F490866FFF743F9054606E0FFF747
:101A50003FF9401B022801D9032035E61748083812
:101A60000068C0F340600028F1D1D4E907010843C1
:101A7000616A40EA81110122A06AC2EB500041EA8A
:101A800000412C20005D41EA00600C49091F0860FC
:101A900001200B490866FFF71BF9054606E0FFF732
:101AA00017F9401B022801D903200DE60348083826
:101AB0000068C0F340600028F1D03FE008380240E1
:101AC00000004742800E47420070004000201C4941
:101AD0000866FFF7FDF8054606E0FFF7F9F8401B3A
:101AE000022801D90320EFE516480068C0F34060E2
:101AF0000028F2D122E0A069012800D1E4E51148D4
:101B0000001D066806F48001E069814214D106F0E8
:101B10003F01206A81420FD147F6C0703040616AB0
:101B2000884209D106F44031A06A814204D106F00E
:101B30007061E06A814201D00120C5E50020C3E563
:101B4000000047420038024070B504462546681E32
:101B5000B0F1807F01D301200FE0681E4FF0E0213B
:101B600048610F214FF0FF3002F048FC00204FF099
:101B7000E021886107200861002070BD30B5024671
:101B80000B4600BF92F83C00012801D1022030BD75
:101B9000012082F83C0000BF022082F83D0010685E
:101BA00044681068816824F0700418680443106861
:101BB0004460144D1068A84213D01068B0F1804FF3
:101BC0000FD0114D1068A8420BD0104D1068A842DC
:101BD00007D00F4D1068A84203D00E4D1068A842E0
:101BE00005D121F08001586801431068816001200F
:101BF00082F83D0000BF002082F83C0000BF00BF1B
:101C0000C5E700000000014000040040000800405B
:101C1000000C00400040014010B504460CB9012002
:101C200010BD94F83D0028B9002084F83C002046FF
:101C300000F00CF8022084F83D00211D206801F01E
:101C40003FFF012084F83D000020E9E738B5044655
:101C50002068B0F1804F35D100BF002000901A48B5
:101C6000006840F00100184908600846006800F06C
:101C70000100009000BF00BF1448154908604FF0F4
:101C8000C06048604021124881600021C1604FF46B
:101C90008061016189004161890081618911C161AF
:101CA000002101624162FEF747FE08B1FEF7EEFB3C
:101CB00000BF0749A1620846846300BF00BF2163DB
:101CC000846300BF38BD000040380240A06002407D
:101CD000405500202DE9F04104460D4600BF94F820
:101CE0003C00012802D10220BDE8F081012084F8E7
:101CF0003C0000BF022084F83D002068866826F082
:101D0000770626F47F46206886602868502833D0FE
:101D10000CDC202850D004DC00284BD0102851D1F6
:101D200049E0302849D040284CD139E060282DD0F6
:101D3000702807D0B0F5805F03D0B0F5005F41D1C7
:101D40000DE040E0D5E902136A68206801F06BFFFE
:101D50002068866846F077062068866033E0D5E91B
:101D600002136A68206801F05EFF2068806840F412
:101D700080402168886026E0EA686968206802F08F
:101D800023F85021206801F059FF1CE0EA686968D7
:101D9000206802F02CF86021206801F04FFF12E06B
:101DA000EA686968206802F00FF84021206801F0B5
:101DB00045FF08E000BF00BF00BF2968206801F0B0
:101DC0003DFF00E000BF00BF012084F83D0000BFE0
:101DD000002084F83C0000BF00BF85E72DE9F041FA
:101DE00004460D4614B90120BDE8F08194F83D0089
:101DF00028B9002084F83C00204600F047F8022073
:101E000084F83D002068806844F207018843216817
:101E10008860211D206801F053FE2068D0F80880FA
:101E2000206886692068076A286840EA080840F246
:101E300003308643A969A86840EA0120064340F6BA
:101E40000C4086434FF2F0008643E969E86840EAB7
:101E50000120064328690001296A40EA013006434F
:101E600027F0220727F088076969686840EA0110AF
:101E700007432068C0F808802068866120680762F0
:101E8000012084F83D000020AEE7000010B586B0C8
:101E90000446142101A8FEF7E7F91B49206888428F
:101EA0002FD100BF002000901848006840F00100CA
:101EB000164908600846006800F00100009000BF65
:101EC00000BF00BF0020009010481438006840F0A8
:101ED00001000E49143908600846006800F001004E
:101EE000009000BF00BF4FF44070019002200290AC
:101EF0000020039004900120059001A90448FEF7FA
:101F0000EFFD06B010BD0000000001404438024063
:101F10000000024030B504460D4615B1042D18D11D
:101F20000BE001220021206801F01CFE2068C0683F
:101F300040F002002168C86022E0012204212068EC
:101F400001F010FE2068C06840F004002168C860FD
:101F500016E001220021206801F004FE0122042184
:101F6000206801F0FFFD2068C06840F00200216891
:101F7000C8602068C06840F004002168C86000BFE5
:101F800000BF2068006840F0010021680860002060
:101F900030BD704710B586B00446142101A8FEF785
:101FA00063F92068B0F1804F1BD100BF0020009082
:101FB0000D48006840F001000B49086008460068C1
:101FC00000F00100009000BF00BF022001900290CD
:101FD0000020039004900120059001A90348FEF71A
:101FE0007FFD06B010BD0000303802400000024006
:101FF00070B504460D46164600BF94F83C00012813
:1020000001D1022070BD012084F83C0000BF0220F5
:1020100084F83D0036B1042E1BD0082E31D00C2E92
:102020005ED145E02946206801F012FE20688069F3
:1020300040F00800216888612068806920F0040071
:10204000216888612068806929690843216888615E
:1020500047E02946206801F02BFE2068806940F4A3
:102060000060216888612068806920F480602168B0
:10207000886120688069296940EA012021688861B7
:102080002FE02946206801F047FE2068C06940F033
:1020900008002168C8612068C06920F00400216838
:1020A000C8612068C069296908432168C86118E0CF
:1020B0002946206801F064FE2068C06940F4006091
:1020C0002168C8612068C06920F480602168C86107
:1020D0002068C069296940EA01202168C86100E0E0
:1020E00000BF00BF012084F83D0000BF002084F83D
:1020F0003C0000BF00BF85E710B504460CB90120C5
:1021000010BD94F83D0028B9002084F83C0020461A
:1021100000F00CF8022084F83D00211D206801F039
:10212000CFFC012084F83D000020E9E77047000063
:1021300010B504460421024800F0BCF810BD0000B0
:1021400000550020704700002DE9F04104460E467E
:1021500015461F4694F83D00022801D1BDE8F081E4
:1021600094F83D00012805D10DB907B1F6E702202A
:1021700084F83D0036B1042E1FD0082E38D00C2E26
:102180006CD150E04749606AC1634749606A0164A5
:102190004649606AC164216801F134023B46294620
:1021A000606AFEF73FFC08B10120D7E72068C068ED
:1021B00040F400702168C86051E03A49A06AC163E8
:1021C0003949A06A01643949A06AC164216801F1F2
:1021D00038023B462946A06AFEF724FC08B10120DC
:1021E000BCE72068C06840F480602168C86036E0C1
:1021F0002C49E06AC1632C49E06A01642B49E06A1A
:10220000C164216801F13C023B462946E06AFEF7C1
:1022100009FC08B10120A1E72068C06840F4006013
:102220002168C8601BE01F49206BC1631E49206BF9
:1022300001641E49206BC164216801F140023B46E4
:102240002946206BFEF7EEFB08B1012086E72068E7
:10225000C06840F480502168C86000E000BF00BF43
:1022600001223146206801F07DFC11492068884236
:1022700001D1012000E0002028B12068406C40F42A
:102280000040216848642068806800F00708B8F1C1
:10229000060F05D02068006840F001002168086042
:1022A00000205BE7873B0008CD3B0008133C00089B
:1022B0000000014070B504460D4635B1042D0ED026
:1022C000082D16D00C2D28D11DE02068C06820F400
:1022D00000702168C860606AFEF7F6F91EE02068A9
:1022E000C06820F480602168C860A06AFEF7ECF93D
:1022F00014E02068C06820F400602168C860E06ACB
:10230000FEF7E2F90AE02068C06820F480502168F6
:10231000C860206BFEF7D8F900E000BF00BF0022C4
:102320002946206801F01EFC19492068884201D125
:10233000012000E0002090B100BF2068006A41F257
:102340001111084050B92068006A8910084028B966
:102350002068406C20F400402168486400BF00BF42
:102360002068006A41F21111084050B92068006AE3
:102370008910084028B92068006820F00100216811
:10238000086000BF012084F83D00002070BD0000FF
:1023900000000140704700002DE9F0470446206826
:1023A00005682068C668206847694FF00008C14684
:1023B00005F00F08B8F1000F0AD105F0200038B180
:1023C00006F0200020B1204601F04FFDBDE8F08767
:1023D000B8F1000F72D007F0010018B906F4907040
:1023E00000286BD005F0010030B106F4807018B100
:1023F000E06B40F00100E06305F0040030B107F04D
:10240000010018B1E06B40F00200E06305F002004B
:1024100030B107F0010018B1E06B40F00400E06358
:1024200005F0080048B106F0200010B907F00100DF
:1024300018B1E06B40F00800E063E06B70B305F0AA
:10244000200028B106F0200010B1204601F00DFD5B
:1024500020684069C0F38019E06B00F0080010B9F3
:10246000B9F1000F23D0204601F0DFFC206840695D
:1024700000F04000402816D12068406920F040005C
:1024800021684861606B50B11748616B0865606BEB
:10249000FEF71AF910B1606B016D88470CE0204619
:1024A000FFF778FF08E02046FFF774FF04E02046BE
:1024B000FFF770FF0020E06388E7FFE705F080008A
:1024C00030B106F0800018B1204601F015FF7DE71D
:1024D00005F0400030B106F0400018B1204601F090
:1024E000B4FC73E700BF71E7173E000810B504465F
:1024F0000CB9012010BDA06900B100E000BF94F844
:10250000390028B9002084F83800204600F028F867
:10251000242084F839002068C06820F40050216825
:10252000C860204601F0F4FC2068006920F4904067
:10253000216808612068406920F02A00216848610C
:102540002068C06840F400502168C8600020E06343
:10255000202084F8390084F83A000020CAE70000FF
:1025600010B586B00446142101A8FDF77DFE1F4971
:102570002068884238D100BF002000901C480068C5
:1025800040F020001A4908600846006800F020006A
:10259000009000BF00BF00BF002000901448143816
:1025A000006840F0010012491439086008460068CC
:1025B00000F00100009000BF00BF4FF4C050019038
:1025C0000220029000200390032004900820059030
:1025D00001A90848FEF784FA002211464720FEF7B9
:1025E000DDFE4720FEF7CAFE06B010BD0014014014
:1025F0004438024000000240704770471DE000BFB1
:1026000000BF00BF00BF00BFBFF34F8F00BF00BFC0
:1026100000BF0A48006800F4E06009490843001D53
:102620000649086000BF00BF00BFBFF34F8F00BF67
:1026300000BF00BF00BF00BFFDE7E0E70CED00E01A
:102640000000FA0510B50248FEF74AFB10BD000075
:102650006C540020C16AB1F52A0F02D10121C16278
:1026600005E0C16AB1F12A4F01D10821C16270476A
:10267000F8B5054600200090AC6B94F83D603948F1
:1026800000681921B0FBF1F04FF47A71B0FBF1F062
:10269000C0EBC00000EB8000009000BF009820B9A4
:1026A000206C40F02000206409E00098401E00905B
:1026B0002068006800F40070B0F5007FEED000BF25
:1026C000606B10B10020616BC863A06B10B100207B
:1026D000A16BC8632068006820F4806021680860EE
:1026E00000206085606B10B10020616B0865A06BF5
:1026F00010B10020A16B08652068006820F001007F
:102700002168086094F83D0060280AD1202084F8F0
:102710003D00002084F83E0020642046FEF7DEFAEB
:102720001EE006F02800282811D12068006840F03B
:102730000100216808602068006840F4806021681A
:10274000086000202063282084F83D0005E0202058
:1027500084F83D00002084F83E002046FEF7AAFBE6
:10276000F8BD0000DC1100202DE9F041044694F88A
:102770003D6094F83E70102F01D0402F07D1222EDB
:1027800005D12068006820F400602168086006F028
:102790002800282805D100202063282084F83D0047
:1027A00010E02068406800F40060B0F5006F07D0CA
:1027B000602E05D0202084F83D00002084F83E00E3
:1027C000002020632068406800F40060B0F5006FCE
:1027D00040D12068406820F4006021684860606B48
:1027E00090F83500012814D04848616B0865606B8B
:1027F000FDF76AFF00285BD02068006820F0010028
:1028000021680860202084F83D00606B016D8847D6
:102810004EE03E48A16B0865A06BFDF755FF002810
:1028200046D020684069C0F3801030B1206800694C
:10283000616A0870606A401C60622068006820F06D
:10284000010021680860202084F83D00A06B016D24
:1028500088472DE094F83D0060281AD1202084F8A4
:102860003D000020206420684069C0F3801030B132
:1028700020680069616A0870606A401C60622068B4
:10288000006820F00100216808602046FEF726FA63
:102890000EE020684069C0F3801030B12068006904
:1028A000616A0870606A401C60622046FEF702FBA5
:1028B000256C05F0010058B905F00200022807D088
:1028C00005F00400042803D005F00800082805D10D
:1028D0002068406820F4E0602168486094F83D601A
:1028E000206C00F0040004280ED1282E0CD10848DA
:1028F000E06200202063202084F83D00002084F85E
:102900003E002046FEF7C0FBBDE8F08171260008BE
:102910000000FFFF014608684069C0F38020B0B1A5
:102920006FF480600A68506100200863202081F8FD
:102930003D00002081F83E00086C40F0040008646F
:1029400000BF002081F83C0000BF0120704700203C
:10295000FCE770B50446E56A608D042810D1206854
:10296000406820F480602168486020680069616ADE
:102970000870606A401C6062608D401E60857AE06D
:10298000608D03281AD12068406820F48060216897
:102990004860042D07D0022D05D02068006820F47F
:1029A00080602168086020680069616A0870606A58
:1029B000401C6062608D401E60855CE0608D022876
:1029C0004FD1012D01D0102D06D12068006820F4D0
:1029D00080602168086012E0042D01D0022D06D12C
:1029E0002068006840F480602168086007E0102DCE
:1029F00005D02068006840F40070216808602068F5
:102A00000069616A0870606A401C6062608D401EE7
:102A1000608520680069616A0870606A401C6062B5
:102A2000608D401E60852068406820F440702168F9
:102A30004860202084F83D0094F83E00402807D1EB
:102A4000002084F83E0020632046FEF720FB12E0C1
:102A5000002084F83E00122020632046FEF715FB7C
:102A600009E020680069616A0870606A401C606261
:102A7000608D401E608570BD70B5044694F83D00C1
:102A8000222869D1658D032D13D920680069616AF8
:102A90000870606A401C6062608D401E6085608DB9
:102AA000032858D12068406820F48060216848607D
:102AB00051E0E06A02284ED0012D01D0002D4AD10C
:102AC000204600F08DFD68BB2068006820F480601F
:102AD000216808602068406820F4E0602168486050
:102AE00020680069616A0870606A401C6062608DDD
:102AF000401E6085202084F83D0094F83E00402868
:102B000007D1002084F83E0020632046FEF7BFFA7C
:102B100021E0002084F83E00122020632046FEF7CA
:102B2000B4FA18E02068406820F4E060216848604A
:102B300020680069616A0870606A401C6062608D8C
:102B4000401E6085202084F83D00002084F83E006F
:102B50002046FEF7AFF900BF70BD70B50446E56AC8
:102B600094F83D0021283CD1608D50B1606A007816
:102B700021680861606A401C6062608D401E60854B
:102B80002FE0082D16D0202D14D015F5803F11D040
:102B90002068406820F4E0602168486011202063CC
:102BA000002084F83E00202084F83D002046FEF7F7
:102BB0006DFA16E02068406820F4E0602168486003
:102BC0002068006840F400702168086000202063DD
:102BD000202084F83D00002084F83E002046FEF7C7
:102BE00055FA70BD2DE9F041044694F83D5094F833
:102BF0003E70E66A208DB0BB212D3CD1082E16D048
:102C0000202E14D016F5803F11D02068406820F4A3
:102C1000E0602168486011202063002084F83E00B5
:102C2000202084F83D002046FEF730FA44E020687A
:102C3000406820F4E060216848602068006840F443
:102C400000702168086000202063202084F83D0087
:102C500094F83E00402807D1002084F83E0020462A
:102C6000FEF716FA28E006E0002084F83E00204631
:102C7000FEF70CFA20E0212D03D0402F1CD1222D8D
:102C80001AD1608D30B92068406820F480602168D6
:102C9000486011E094F83E00402803D1204600F03F
:102CA000A5F909E0606A007821680861606A401C43
:102CB0006062608D401E6085BDE8F081416CC9B2E4
:102CC00002681161416B09B9816B59B1416BC96BE4
:102CD00011B9816BC96B29B10168496841F4006180
:102CE00002685160704738B590F83E20C16A036BA6
:102CF00090F83D40222C73D1046D64B9402A0AD16A
:102D000000BF002400940468646900940468A46906
:102D1000009400BF1AE1046DC4B90469B4F5404FD2
:102D200014D100BF0024009404686469009404680E
:102D3000A469009400BF00BF0468246844F4807450
:102D400005682C60046D641C0465FFE0448D8CB93B
:102D500000BF002400940468646900940468A469B6
:102D6000009400BF00BF0468246844F40074056840
:102D70002C60DDE0448D012C72D111F5803F30D103
:102D80000468246824F4806405682C60046864681E
:102D900004F40064B4F5006F10D10468246824F4CE
:102DA000806405682C6000BF002400940468646996
:102DB00000940468A469009400BFB9E000BF002437
:102DC00000940468646900940468A469009400BFD6
:102DD00000BF0468246844F4007405682C60A7E010
:102DE000A9E0082923D0202921D0122B01D10129C3
:102DF0001DD104290AD0022908D0102906D0046860
:102E0000246824F4806405682C6005E00468246864
:102E100044F4806405682C6000BF002400940468BA
:102E2000646900940468A469009400BF80E00468A9
:102E3000246824F4806405682C6000BF002400949A
:102E40000468646900940468A469009400BF00BF2A
:102E50000468246844F4007405682C6068E0FFE7A7
:102E6000448D022C3BD1042910D002290ED0102908
:102E70000CD00468246824F4806405682C6004681D
:102E8000246844F4006405682C6005E00468246844
:102E900044F4806405682C600468646804F4006489
:102EA000B4F5006F10D111F5803F07D0012905D08E
:102EB000082903D0102901D0202905D104686468AD
:102EC00044F4805405686C6000BF002400940468DA
:102ED000646900940468A469009400BF28E0046851
:102EE000246844F4806405682C600468646804F411
:102EF0000064B4F5006F10D111F5803F07D00129AF
:102F000005D0082903D0102901D0202905D1046853
:102F1000646844F4805405686C6000BF0024009429
:102F20000468646900940468A469009400BF00BF49
:102F3000002404650AE000BF00240094046864696A
:102F400000940468A469009400BF00BF38BD90F8E5
:102F50003E1040290ED1016D29B9416C01F0FE01EE
:102F60000268116141E0416CC9B241F0010102689F
:102F700011613AE00169B1F5804F20D190F83D1020
:102F8000212905D1416C01F0FE010268116105E0C3
:102F9000416CC9B241F0010102681161416B11B18C
:102FA000416BC96B21B9816BF9B1816BC96BE1B11F
:102FB0000168496841F400610268516015E0016DE3
:102FC00041B9416C01F44071F02242EAE11102681A
:102FD00011610AE0016D012907D1416C01F44071D2
:102FE000F12242EAE11102681161704770B50446AE
:102FF00094F83D50206D98B9E06C012807D1A06C81
:10300000C0B221680861206D801C206549E0A06C79
:10301000C0F3072021680861206D401C206540E056
:10302000206D012807D1A06CC0B221680861206D15
:10303000401C206535E0206D022832D1222D06D1BA
:103040002068006840F480702168086029E0608D85
:1030500060B1212D0AD1606A007821680861606A38
:10306000401C6062608D401E60851AE0608DC0B9B2
:10307000212D16D12068406820F4E0602168486066
:103080002068006840F40070216808600020206318
:10309000202084F83D00002084F83E002046FDF703
:1030A000F7FF70BD2DE9F84304468846154699465A
:1030B000DDE908672068006840F4807021680860D6
:1030C000334600224FF001112046009700F0E2F94C
:1030D00060B12068006800F48070B0F5807F02D194
:1030E0004FF4007020640320BDE8F88308F0FE0070
:1030F000216808613B4632462149204600F00DFA1E
:1031000008B10120F0E700BF00200090206840696E
:10311000009020688069009000BF00BF3A463146A9
:10312000204600F085FA50B1206C042805D12068B3
:10313000006840F40070216808600120D4E7B9F10C
:10314000010F03D1E8B22168086117E0C5F3072039
:10315000216808613A463146204600F069FA50B1CC
:10316000206C042805D12068006840F400702168B4
:1031700008600120B8E7E8B2216808610020B3E7E1
:1031800002000100418D49B101680969426A11706C
:10319000416A491C4162418D491E4185704770B5A5
:1031A000044694F83D50608DD8B120680069616A8A
:1031B0000870606A401C6062608D401E6085608D92
:1031C00078B92A2D0DD12068406820F480602168EC
:1031D000486022202063282084F83D002046FEF726
:1031E00057F870BD418D49B1416A09780268116193
:1031F000416A491C4162418D491E4185704770B545
:10320000044694F83D50608DD8B1606A007821681A
:103210000861606A401C6062608D401E6085608D40
:1032200078B9292D0DD12068406820F4806021688C
:10323000486021202063282084F83D002046FEF7C6
:1032400028F870BD2DE9F04104460D46002794F89A
:103250003D0000F0280028281CD12068406820F498
:10326000806021684860C5F3800000B90127C5F37C
:10327000C01010B9A08986B201E0208B86B200BFD1
:10328000002084F83C0000BF324639462046FDF756
:1032900026FD08E06FF002002168486100BF0020B1
:1032A00084F83C0000BFBDE8F081000038B504465A
:1032B00094F83D502068406820F4E0602168486040
:1032C00000BF0020009020684069009020680068DE
:1032D00040F001002168086000BF00BF206800685E
:1032E00020F48060216808602068406800F4006075
:1032F000B0F5006F42D1222D01D02A2D1FD1A06B35
:10330000006840686085608D18B1206C40F0040052
:1033100020642068406820F4006021684860A06B49
:10332000FDF7E6F9012829D04148A16B0865A06B9B
:10333000FDF7CAF910B3A06B016D88471EE0606B02
:10334000006840686085608D18B1206C40F0040012
:1033500020642068406820F4006021684860606B49
:10336000FDF7C6F9012809D03148616B0865606B2B
:10337000FDF7AAF910B1606B016D8847608D18B335
:1033800020684069C0F3800048B120680069616A24
:103390000870606A401C6062608D401E6085206815
:1033A0004069C0F3801048B120680069616A087004
:1033B000606A401C6062608D401E6085608D18B13F
:1033C000206C40F004002064206C18B12046FFF708
:1033D000CBF92BE02A2D07D100202063282084F888
:1033E0003D002046FDF754FF94F83D0028280DD1FC
:1033F0001048E06200202063202084F83D00002077
:1034000084F83E002046FDF73FFE0FE0206B2228A7
:1034100001D0222D0AD100202063202084F83D0015
:10342000002084F83E002046FDF732FF38BD000042
:10343000712600080000FFFF70B504460D461646D1
:1034400020E02046FFF766FA08B1012070BD681C35
:10345000C0B1FDF73DFC801BA84200D895B9002003
:103460002063202084F83D00002084F83E00206C7A
:1034700040F02000206400BF002084F83C0000BF22
:103480000120E3E720684069C0F380000028D8D01D
:103490000020DBE72DE9F04104460D4617461E46A5
:1034A000DDF818801CE0701CD0B1FDF711FCA0EB1A
:1034B0000800B04200D89EB900202063202084F884
:1034C0003D00002084F83E00206C40F02000206485
:1034D00000BF002084F83C0000BF0120BDE8F0815F
:1034E000C5F3074001280AD120684069A9B2084005
:1034F000A9B2884201D101200BE0002009E0206838
:103500008069A9B20840A9B2884201D1012000E037
:103510000020B842C7D00020E0E72DE9F041044682
:103520000D4616461F463DE020684069C0F38020E6
:10353000E8B12068006840F40070216808606FF40A
:1035400080602168486100202063202084F83D00CD
:10355000002084F83E00206C40F00400206400BF8E
:10356000002084F83C0000BF0120BDE8F081701C01
:10357000C0B1FDF7ADFBC01BB04200D896B900202A
:103580002063202084F83D00002084F83E00206C59
:1035900040F02000206400BF002084F83C0000BF01
:1035A0000120E2E7C5F3074001280AD120684069FD
:1035B000A9B20840A9B2884201D101200BE0002045
:1035C00009E020688069A9B20840A9B2884201D107
:1035D000012000E000200028A6D00020C5E7000060
:1035E00008B5014600200090104800681922B0FB81
:1035F000F2F04FF47A72B0FBF2F000EB8000009032
:1036000000BF0098401E0090009828B9086C40F058
:1036100020000864012008BD0868006800F40070FC
:10362000B0F5007FEDD00020F5E70000DC110020B0
:1036300070B504460D46164620E02046FFF76AF9AD
:1036400008B1012070BD681CC0B1FDF741FB801BB3
:10365000A84200D895B900202063202084F83D00BE
:10366000002084F83E00206C40F02000206400BF61
:10367000002084F83C0000BF0120E3E72068406997
:10368000C0F3C0100028D8D00020DBE708B500BF89
:10369000002000900A48006840F4001008490860C3
:1036A0000846006800F40010009000BF00BF002230
:1036B00011461120FDF772FE1120FDF75FFE08BDD7
:1036C0003038024000B587B0142102A8FCF7CCFDC9
:1036D00000BF002001902B48006840F004002949F9
:1036E00008600846006800F00400019000BF00BFB9
:1036F00000BF002001900846006840F0800008608C
:103700000846006800F08000019000BF00BF00BFC5
:10371000002001900846006840F00100086008465B
:10372000006800F00100019000BF00BF00BF002052
:1037300001900846006840F00200086008460068F2
:1037400000F00200019000BF00BF00224FF40051C2
:103750000D48FDF7B7FA4FF4005002900120039096
:1037600000200490059002A90748FDF7B9F911203F
:10377000029000200390049002A90448FDF7B0F9DC
:1037800007B000BD3038024000080240000002408F
:1037900010B50B480B4908600B48486000210948E8
:1037A0008160C1604FF4804101610021416181610C
:1037B000C1610162FDF780FB08B1FCF767FE10BD37
:1037C000005400406C540020801A060000B58BB0F5
:1037D000242102A8FCF748FD002000900190184821
:1037E0001849086000204860002116488160FF21C8
:1037F000C1600021016141618161022002900020CD
:10380000039001200490002005900690079001206D
:103810000890002009900A9002A90A48FEF7DEFAF3
:1038200008B1FCF733FE002000900190694605487E
:10383000FEF7A4F908B1FCF729FE0BB000BD0000AB
:1038400000000140C054002000B58DB00020099058
:103850000A900B900C90079008901C216846FCF78A
:1038600003FD4FF080401F490860002048600021A0
:103870001C4881607C21C160002101618161FEF7EB
:10388000CBF908B1FCF702FE4FF48050099009A96A
:103890001448FEF71FFA08B1FCF7F8FD1148FEF7CF
:1038A0002BFC08B1FCF7F2FD00200790089007A957
:1038B0000C48FEF763F908B1FCF7E8FD60200090C2
:1038C0000020019002900490042269460548FEF70A
:1038D0008FFB08B1FCF7DAFD0248FEF75BFB0DB089
:1038E00000BD00000055002010B50B480B490860D2
:1038F0004FF4E1304860002108488160C1600161F7
:103900000C21416100218161C161FEF7EFFD08B129
:10391000FCF7BCFD10BD000000140140A0550020C4
:1039200000BFFEE700BFFEE77047704710B5FDF728
:10393000B1FC10BD00B593B0302107A8FCF794FC92
:10394000142102A8FCF790FC00BF0020019023483E
:10395000006840F08050214908600846006800F087
:103960008050019000BF00BF00BF002001901C48A4
:10397000006840F440401A4908600846006800F4B6
:103980004040019000BF00BF012007900004089054
:1039900002200D9041050E910C210F916021109194
:1039A000022111910421129107A8FDF789FE08B1A7
:1039B000FCF76CFD0F200290022003900020049081
:1039C0004FF48050059000200690032102A8FDF7D7
:1039D00037FD08B1FCF75AFD13B000BD4038024076
:1039E0000070004070B50020002202230024022154
:1039F000274D2D6805F00C0020B1042806D00828BA
:103A000034D107E0234D244E356033E0234D224E60
:103A100035602FE01E4D2D1F2D68C5F380541C4DC1
:103A20002D1F2D6805F03F0154B11C4DB5FBF1F57C
:103A3000174E361F3668C6F3881605FB06F209E0F6
:103A4000144DB5FBF1F5124E361F3668C6F38816D5
:103A500005FB06F20E4D2D1F2D68C5F301456D1CAB
:103A60006B00B2FBF3F50C4E356003E0094D0A4ED6
:103A7000356000BF00BF064D2D68C5F30315084E25
:103A8000705D054D2D68C540034E356070BD00006A
:103A9000083802400024F400DC11002040787D0149
:103AA0005E5E00080548006840F470000349086045
:103AB0004FF00060014980390860704788ED00E0F0
:103AC00010B50268204B98420BD0B0F1804F08D05F
:103AD0001E4B984205D01E4B984202D01D4B984277
:103AE00003D122F070024B681A43174B984214D04E
:103AF000B0F1804F11D0154B98420ED0144B984224
:103B00000BD0144B984208D0134B984205D0134B5E
:103B1000984202D0124B984203D122F44072CB68F3
:103B20001A4322F080034C6943EA040202608B6866
:103B3000C3620B688362044B984201D10B69036333
:103B40000123436110BD000000000140000400405B
:103B500000080040000C00400040014000440140CB
:103B60000048014030B501F01F05012404FA05F3B7
:103B7000046A9C430462046A01F01F0502FA05F519
:103B80002C43046230BD70B50546AC6B012084F84F
:103B90003D00606AA84202D10120207710E0A06AAF
:103BA000A84202D1022020770AE0E06AA84202D1AE
:103BB0000420207704E0206BA84201D10820207760
:103BC0002046FEF7B5FA0020207770BD70B5054697
:103BD000AC6B012084F83D00606AA84202D101204C
:103BE000207710E0A06AA84202D1022020770AE0E4
:103BF000E06AA84202D10420207704E0206BA842AA
:103C000001D1082020772046FEF79CFA002020777B
:103C100070BD70B50446A56B012085F83D002846AF
:103C2000FEF7B7F970BD30B50C46816821F47F41CD
:103C300042EA032525432943816030BD0A46816855
:103C400021F0700142F007031943816070470000C2
:103C500030B5056A25F001050562026A436884698A
:103C600024F0700424F003040D682C4322F00202B7
:103C70008D682A430D4DA84206D100BF22F00802EC
:103C8000CD682A4322F00402084DA84207D123F44C
:103C9000807323F400734D692B438D692B4343607C
:103CA00084614D684563026230BD00000000014040
:103CB00030B5056A25F010050562026A436884691B
:103CC00024F4E04424F440740D6844EA052422F00E
:103CD00020028D6842EA05120E4DA84207D100BFAE
:103CE00022F08002CD6842EA051222F04002094D1E
:103CF000A84209D123F4806323F400634D6943EAA9
:103D000085038D6943EA8503436084614D6885635B
:103D1000026230BD0000014030B5056A25F48075AF
:103D20000562026A4368C46924F0700424F0030445
:103D30000D682C4322F400728D6842EA05220F4D73
:103D4000A84207D100BF22F40062CD6842EA0522F2
:103D500022F48062094DA84209D123F4805323F450
:103D600000534D6943EA05138D6943EA0513436027
:103D7000C4614D68C563026230BD000000000140AF
:103D800030B5056A25F480550562036A4468C26946
:103D900022F4E04222F440720D6842EA052223F444
:103DA00000538D6843EA0533064DA84204D124F43C
:103DB00080444D6944EA85144460C2614D680564DD
:103DC000036230BD0000014030B50B461446026A64
:103DD000056A25F001050562816921F0F00141EADB
:103DE000041122F00A021A438161026230BD30B52B
:103DF0000B461446056A25F0100505628169026AC2
:103E000021F4704141EA043122F0A00242EA031297
:103E10008161026230BD70B50546AC6B0020E08563
:103E2000E0842046FEF7B6FA70BD0168C96821F447
:103E300090710268D1600168496921F0010102684E
:103E40005161202180F83A10704710B5044620686F
:103E5000C06820F040002168C860202084F8390044
:103E60002046FEF7CAFB002010BD70B5044694F84A
:103E70003A0022284AD1A068B0F5805F13D1A56A24
:103E8000206940B920684068C0F308002880A06A13
:103E9000801CA06219E020684068C0B22880A06A37
:103EA000401CA06211E0206938B920684068C1B2A6
:103EB000A26A501CA062117007E02068406800F000
:103EC0007F01A26A501CA0621170E08D401E80B27A
:103ED000E085C8B92068C06820F020002168C8606B
:103EE0002068C06820F480702168C860206840693C
:103EF00020F0010021684861202084F83A00204623
:103F0000FEF77AFB002070BD0020FCE70220FAE7F4
:103F10002DE9F84F04462068006920F44050E1681C
:103F20000843216808612169A06808436169084362
:103F3000E169084300902068C06849F20C61884339
:103F4000009908432168C8602068406920F44070E7
:103F5000A169084321684861E069B0F5004F75D157
:103F6000E3492068884203D0E249206888426FD143
:103F7000FDF73EFB814602206168A0FB01510B4624
:103F80001920A9FB00712A463846FCF723F9642161
:103F9000B0FBF1F04FEA001A02206168A0FB01516A
:103FA0000B461920A9FB00712A463846FCF712F986
:103FB000074602206168A0FB01510B461920A9FBAE
:103FC00000B12A465846FCF705F96421B0FBF1F030
:103FD00000EBC00101EB0010A7EB8000322101EBE8
:103FE000C0006421B0FBF1F000F0F8000AEB400AD9
:103FF00002206168A0FB01510B461920A9FB00714A
:104000002A463846FCF7E6F8074602206168A0FB1E
:1040100001510B461920A9FB00B12A465846FCF76E
:10402000D9F86421B0FBF1F000EBC00101EB001006
:10403000A7EB8000322101EBC0006421B0FBF1F05E
:1040400000F007005044216888604FE16EE0FFE710
:10405000FDF7BEFA814602206168A0FB01510B46C4
:104060001920A9FB00712A463846FCF7B3F86421F1
:10407000B0FBF1F04FEA001A02206168A0FB015189
:104080000B461920A9FB00712A463846FCF7A2F816
:10409000074602206168A0FB01510B461920A9FBCD
:1040A00000B12A465846FCF795F86421B0FBF1F0C0
:1040B00000EBC00101EB0010A7EB8000322101EB07
:1040C000C0006421B0FBF1F000F0F8000AEB400AF8
:1040D00002206168A0FB01510B461920A9FB007169
:1040E0002A463846FCF776F8074602206168A0FBAE
:1040F000015003461920A9FB00B12A465846FCF797
:1041000069F86421B0FBF1F000EBC00101EB001095
:10411000A7EB8000322101EBC0006421B0FBF1F07D
:1041200000F00700504421688860DFE07049206893
:10413000884203D06F49206888426BD1FDF758FA56
:10414000814604206168A0FB01510B461920A9FBA0
:1041500000712A463846FCF73DF882460420616823
:10416000A0FB01510B461920A9FB00712A463846D5
:10417000FCF730F86421B0FBF1F000EBC00101EB7B
:104180000010AAEB8000322101EB00106421B0FB8B
:10419000F1F000F0F00A04206168A0FB0150034632
:1041A0001920A9FB00712A463846FCF713F8642150
:1041B000B0FBF1F00AEB001A04206168A0FB01518A
:1041C0000B461920A9FB00712A463846FCF702F875
:1041D000074604206168A0FB015003461920A9FB93
:1041E00000B12A465846FBF7F5FF6421B0FBF1F019
:1041F00000EBC00101EB0010A7EB8000322101EBC6
:1042000000106421B0FBF1F000F00F005044216871
:1042100088606BE0FDF7DCF9814604206168A0FB53
:10422000015003461920A9FB00712A463846FBF7C6
:10423000D1FF824604206168A0FB0150034619208B
:10424000A9FB00712A463846FBF7C4FF6421B0FB86
:10425000F1F000EBC00101EB0010AAEB800032216D
:1042600001EB00106421B0FBF1F000F0F00A042033
:104270006168A0FB015003461920A9FB00712A4682
:104280003846FBF7A7FF6421B0FBF1F00AEB001AF8
:1042900004206168A0FB017003461920A9FB0050AF
:1042A00001463A462846FBF795FF07460420616819
:1042B000A0FB015003461920A9FB00B12A4658462D
:1042C000FBF788FF6421B0FBF1F000EBC00101EBCC
:1042D0000010A7EB8000322101EB00106421B0FB3D
:1042E000F1F000F00F00504421688860BDE8F88FBD
:1042F0000010014000140140014691F839002128C6
:104300002CD18868B0F5805F0FD10A6A1088C0F39D
:1043100008000B685860086918B9086A801C0862B0
:1043200009E0086A401C086205E00B6A581C086234
:1043300018780B685860C88C401E80B2C88458B981
:104340000868C06820F080000B68D8600868C06802
:1043500040F040000B68D860002070470220FCE766
:1043600010B515480068006800F02000202802D130
:1043700000F03CF91CE010480068006800F00800FC
:10438000082802D10D48006812E00B480068006858
:1043900000F00200022802D10848006808E0064840
:1043A0000068006800F00400042801D10348006898
:1043B0000148FDF7F1FF10BDA05500200414014095
:1043C00000BFFEE70FB4084B10B504A902AA03987A
:1043D00000F038F8044602A9002000F0DDF820467D
:1043E00010BC5DF814FB0000994500080248006805
:1043F000C0F30220704700000CED00E010B500286B
:1044000004DB0A07130E054A135406E00A07140ECC
:10441000034A00F00F031B1FD45410BD00E400E05A
:1044200018ED00E002E008C8121F08C1002AFAD106
:1044300070477047002001E001C1121F002AFBD124
:10444000704700002DE9FF4F89B09B4604460025C8
:1044500006E025280BD05A460B999047641C6D1C2A
:1044600020780028F5D10DB02846BDE8F08F002750
:10447000B8460122474900E0074314F8013F203BBA
:1044800002FA03F00842F7D120782E2819D114F847
:10449000010F47F004072A280ED06FF02F02207872
:1044A000A0F1300109290CD808EB880102EB410189
:1044B00000EB0108641CF2E70A98641C50F8048BB6
:1044C0000A9020780028CED0642808D0692806D029
:1044D00075281ED05A460B9990476D1C58E00A99D2
:1044E0004FF00A0901C90A91002802DA40422D2141
:1044F00002E0390504D52B218DF82010012103E0BD
:10450000F90704D02021F7E78A4608AE0DE0002124
:10451000FAE70A994FF00A0901C90A91F7E74946F3
:10452000FBF7ADFE303106F8011D0028F7D1ADEBE9
:10453000060000F12009780701D44FF00108C845B2
:1045400002DDA8EB090000E000208046002706E01D
:1045500008A85A46C05D0B9990476D1C7F1C5745B3
:10456000F6DB04E030205A460B9990476D1CB8F1F9
:104570000001A8F10108F5DC05E016F8010B5A4628
:104580000B9990476D1CB9F10001A9F10109F4DC08
:10459000641C65E7092801000A68531C0B60107051
:1045A0007047000010B518E00E4800F041F80D48C3
:1045B00000F0AAF828B90C480088401C0A49088075
:1045C00002E0084800F042FD07480088142190FBF3
:1045D000F1F201FB12000449088000F077F8072887
:1045E000E2DA10BDC8110020C4110020084800689C
:1045F0000849094A1288885407480088401C80B23C
:1046000005490880142801D1002008807047000067
:1046100004140140E0550020C2110020002002498E
:104620000880024908807047C2110020C411002090
:1046300030B50B4B1A8800210EE01346541CA2B271
:10464000084CE55C0B464C1CE1B2C554142392FBAC
:10465000F3F403FB14239AB20729EEDB30BD00000C
:10466000C4110020E055002010B501211348FCF7CB
:1046700021FBF0B9FCF72CFB11490968401AC82846
:104680001BD91048406A00F00100B0B9FCF720FBCC
:104690000D490968401AB0F57A7F03D9FCF718FB79
:1046A0000949086000F014FBFCF712FB044908609C
:1046B00003E0FCF70DFB0449086010BD0000024058
:1046C0007011002000000140741100200B4A128874
:1046D0000B4B1B88D11A002901DB0A4600E04A4235
:1046E00090B206490988064A1288914202DDC0F15B
:1046F000140188B20349088070470000C4110020EB
:10470000C2110020C611002010B504462078FF28F1
:1047100001D0002010BDA079DD2801D00020F9E7EC
:104720000421601C00F007F86179884201D0002064
:10473000F0E70120EEE710B502460023002004E078
:10474000145C1C44E3B2441CA0B28842F8DB184657
:1047500010BD000010B520480088022806D13C2278
:104760001E491D48083000F03FF833E01A48008821
:1047700030B91A4818490A690260898A818029E09B
:1047800015480088062825D013480088042821D120
:104790001148C08812490988084411490880084610
:1047A0000088B0F5B44F01DD002008800C4908886E
:1047B000C11700EB916189110A4A118006484089AE
:1047C000114648800448808988803C220349054876
:1047D00000F00AF810BD0000404F0020A411002096
:1047E000BA110020BC1100202DE9F0471446B0F8A2
:1047F000008098FBF4F84FF0060998FBF9FA09FBE2
:104800001A881FFA88FCB0F80280C8F1FF08B0F8D7
:10481000049008FB09F84FF0FF0998FBF9F81FFA1C
:1048200088F2B0F8008098FBF4F904FB1988B0F81E
:104830000490A9EB020908FB09F898FBF4F81FFAA9
:1048400088F702EB07081FFA88F5B0F80480A8EB98
:1048500007081FFA88F68388BCF1060F1CD2DFE830
:104860000CF003070B0F13170B804D808A8013E0A9
:104870000E804B808A800FE00A804B808D800BE099
:104880000A804E808B8007E00D804A808B8003E099
:104890000B804A808E8000BF00BFBDE8F08700001B
:1048A000A8B0FCF703FDFFF745F8FEF70BFFFEF796
:1048B000EDFEFEF7C9FFFEF76BFFFEF787FFFFF780
:1048C00013F8962000F03CFF2A22354913A8FBF785
:1048D000B2FC3348408DADF876003148C06A1E9076
:1048E0002F48006B1F9009222D49343120A8FBF777
:1048F000A2FC2B4890F83D008DF88900284890F8DC
:104900003E008DF88A002648006C23902448406CB5
:1049100024902348806C25902148C06C2690204824
:10492000006D27907820442217A911906846FBF764
:1049300082FC13A80FC800F039FD00F09DF9FBF7C9
:10494000F7FDFFF76BFE3C211648FDF7E3FA16482A
:10495000006840F40030144908600846006840F4DC
:10496000803008600846006840F4802008600F48E6
:104970000068C06840F020000C490968C8600B4816
:104980000068406940F0010008490968486105E095
:1049900000F000F9FBF77DFDFFF704FEF8E70000EB
:1049A0006C540020C054002024ED00E0A0550020ED
:1049B00038B5002000F0E8FC002416E0C4F1050042
:1049C000C5B20CE0601C6B4A92F831200C2313FB3B
:1049D00002010122284600F0ADFC681CC5B204F1BA
:1049E0007B00A842EEDC601C44B2062CE6DB00240F
:1049F00014E0E5B20CE0E01D5E4A92F831200C2391
:104A000013FB02010122284600F094FC681CC5B289
:104A1000C4F18000A842EEDC601C44B2062CE8DB46
:104A2000002449E0534890F83100A04203D100200F
:104A30005149087002E001204F49087004EB44001E
:104A40008000011D072000F027FD4B4800784949F0
:104A5000009091F8301001EB810202EBC101474A4E
:104A600002EB810104EB840202EBC4028818444982
:104A70000EC900F0CDFD3F4890F83000414901EBF0
:104A8000C00030F81400A8B104EB44008000011D00
:104A9000482000F001FD384800783649009091F830
:104AA0003010344A02EBC10131F8140034490EC908
:104AB00000F064FD601CC4B2042CB3DB2D4890F8F8
:104AC0003000062816D2DFE800F00306090C0F12AA
:104AD00000F0AEF90EE000F0B3FA0BE000F0B1FA2E
:104AE00008E000F0AFFA05E000F0ADFA02E000F0F7
:104AF000ABFA00BF00BF1F4890F83100042803D173
:104B000000201D49087002E001201B490870342173
:104B1000072000F0C1FC18480078009018480EC823
:104B200019A000F075FD3421482000F0B5FC1248B2
:104B300000781049009091F83010481C10490EC9B7
:104B400000F01CFD1148007890B1FF2000F094FCAB
:104B500000224FF400510E48FCF7B4F800F0A2FC1C
:104B600000200A490870012251030948FCF7AAF8FD
:104B700038BD0000404F00208A11002000000020B6
:104B80008C1100203801002053747200681100203D
:104B90000008024010B500F007F8FFF709FFFFF723
:104BA00063FD00F0CBFD10BD10B52C48406A00F04D
:104BB0000100002851D12948406A294909888842C2
:104BC00006D0FCF785F827490860012026490870BF
:104BD0002248406A22490880244890F8310004287D
:104BE0002BDA00BF214890F83000214901EBC000CA
:104BF0001E4991F8311030F81100401C1D49096818
:104C0000C8621A4890F83000194901EBC0001749F2
:104C100091F8311030F81100401C1649C86000BFEF
:104C20000E48406A114991F83010104A02EBC10158
:104C300092F8312021F812000FE000BF0B200D493F
:104C40000968C8620B210B48C16000BF0348406A75
:104C5000C0F34700054981F8300010BD0000014055
:104C60006A1100206C11002068110020404F0020C4
:104C700038010020C054002010B508200D490883D9
:104C800048838883088448848884084600880A49C1
:104C9000096848620948406A09490880FCF718F821
:104CA000084908600020084908600849086000F0C9
:104CB000FFFA10BD404F0020C0540020000001400A
:104CC0006A1100206C110020701100207411002066
:104CD00010B5FBF7FDFF214908600120204908704D
:104CE000204890F83100401C1E4981F831000846E8
:104CF00090F83100042802DD002081F831001948C5
:104D000090F83100042807D1164890F83000400090
:104D10001549096848620CE0124890F830001149C2
:104D200001EBC00091F8311030F811000E4909680C
:104D300048620C4890F8310004280DD0094890F8DA
:104D400030000A4901EBC000064991F8311030F8F3
:104D5000110008B9FFF7BCFF10BD00006C11002066
:104D600068110020404F0020C0540020380100206E
:104D700000B52E4840880C2831D00BDC06281BD00B
:104D800003DC88B104284ED111E0082819D00A2884
:104D900049D11BE00E38092845D2DFE800F026444F
:104DA0002C44324438443E00FBF77DFB3BE0FBF7EC
:104DB0007AFBFBF77EFB36E0FBF775FBFBF7A0FB0E
:104DC00031E0FBF770FBFBF785FB2CE0FBF76BFB9F
:104DD0000120FBF7A7FB0420FBF7A4FB23E0FBF774
:104DE00062FB0020FBF79EFB1DE0FBF75CFB022053
:104DF000FBF798FB17E0FBF756FB0120FBF792FB54
:104E000011E0FBF750FB0320FBF78CFB0BE0FBF7FB
:104E10004AFB0520FBF786FB05E0FBF744FB04207B
:104E2000FBF780FB00BF00BF00BD0000404F00202B
:104E300008B5674890F8310018B900206549087036
:104E400002E00120634908700421482000F024FB9F
:104E50005F48008830B102280DD0042814D00628FD
:104E600024D11AE05B48007800905B480EC85BA034
:104E700000F0CEFB1AE057480078009056480EC864
:104E800057A000F0C5FB11E052480078009052484E
:104E90000EC854A000F0BCFB08E04E48007800901B
:104EA0004D480EC851A000F0B3FB00BF00BF4848FA
:104EB00090F83100012803D100204649087002E033
:104EC0000120444908701021482000F0E5FA4048CC
:104ED0004088172879D2DFE800F00C7815781E7822
:104EE00027783078397842784B7854785D786678CE
:104EF0006F0038480078009037480EC83DA000F099
:104F000087FB62E033480078009033480EC835A034
:104F100000F07EFB59E02F48007800902E480EC824
:104F200035A000F075FB50E02A48007800902A4830
:104F30000EC832A000F06CFB47E0264800780090D5
:104F400025480EC82FA000F063FB3EE02148007802
:104F5000009021480EC82DA000F05AFB35E01D48F6
:104F6000007800901C480EC829A000F051FB2CE0EE
:104F700018480078009018480EC827A000F048FB99
:104F800023E014480078009013480EC824A000F0D5
:104F90003FFB1AE00F48007800900F480EC822A08F
:104FA00000F036FB11E00B48007800900A480EC86C
:104FB0001FA000F02DFB08E006480078009006488E
:104FC0000EC81DA000F024FB00BF00BF08BD0000FC
:104FD000404F00208A1100208C11002052474200CF
:104FE000485356004155544F000000005241494E6D
:104FF000424F57004F464600414C4C0046524F4EE0
:10500000540000004241434B000000004D49440061
:10501000464C45465400000046524947485400005B
:10502000464D494400000000424C454654000000F3
:105030004252494748540000424D49440000000094
:1050400070477047704770477047000010B586B0D2
:10505000044615480088C01D13490880084600888A
:10506000142190FBF1F201FB12000F49088000208F
:105070000390049005902079E178CDE90010A378A1
:1050800062780AA103A8FFF79DF90021084600F005
:1050900003FA0120009008480EC803A800F0B8FAEF
:1050A00000F000FA06B010BDC411002025642025D0
:1050B00064202564202564008C1100202DE9F04136
:1050C0005748008806286FD1564855498A680260BB
:1050D000898981805448008840F62461884203DB36
:1050E0000020514908800AE04D49C888C11700EBEB
:1050F00091714D4A128802EBA1014B4A11800025A3
:105100004EE04A48445D45E0474800880A2190FB4C
:10511000F1F04349098D454A525DA21A01FB020094
:105120004FF4B47190FBF1F201FB12003D4908808D
:105130003C223F493B48FFF757FB3D4B9B88DFF83C
:10514000F4C03CF914C003FB0CF6F31706EB136331
:10515000C3F30722364B5B88DFF8D8C03CF914C094
:1051600003FB0CF7FB1707EB1363C3F30721304B6B
:105170001B88DFF8C0C03CF914C003FB0CF84FEAF1
:10518000E87308EB1363C3F30720234600F010FB1A
:10519000601CC4B22848405DA042B5DA681CC5B2A4
:1051A000052DAEDD38E0FFE7002433E0DFF880C0F6
:1051B000BCF804C0DFF87C8038F914800CFB08F5DB
:1051C0004FEAE57C05EB1C6CCCF30722DFF860C0EE
:1051D000BCF802C0DFF85C8038F914800CFB08F6DC
:1051E0004FEAE67C06EB1C6CCCF30721DFF840C0ED
:1051F000BCF800C0DFF83C8038F914800CFB08F7DD
:105200004FEAE77C07EB1C6CCCF30720A3B200F05D
:10521000CFFA641C962CC9DB00F0BCFABDE8F08123
:10522000404F0020BC110020AC110020981100203C
:10523000A4110020405300209E11002038B50446E0
:10524000204600F06BF800211248007800F024F9A5
:105250000120009010480EC8104800F0D9F90C2128
:105260000F48007800F018F9012000900A480EC895
:105270000C4800F0CDF918210B48007800F00CF92B
:105280000120009004480EC8084800F0C1F900F061
:1052900009F938BD871100208C11002078110020F9
:1052A000881100207E110020891100208411002027
:1052B00010B5FF2000F0E0F81648FFF7BFFF4FF4ED
:1052C0007A70FBF7F9FB1448FFF7B8FF3220FBF7C1
:1052D000F3FB1048FFF7B2FF3220FBF7EDFB0E485F
:1052E000FFF7ACFF3220FBF7E7FB0A48FFF7A6FF0A
:1052F0003220FBF7E1FB0848FFF7A0FF3220FBF765
:10530000DBFB0448FFF79AFF4FF47A70FBF7D4FBFE
:1053100010BD0000680100206805002010B504469B
:105320004FF4806221460248FAF785FF10BD000065
:10533000E04A002030B5802823D2402921D2012A1A
:1053400010D1CB0800EBC3130E4CE35C01F0070552
:105350000124AC402343DCB2CB0800EBC313094D5E
:10536000EC540EE0CB0800EBC313064CE35C01F0F9
:1053700007050124AC40A343CC0800EBC414014D45
:105380002B5530BDE04A002010B50446012C05D154
:10539000FF2281020448FAF760FF04E04FF48061C5
:1053A0000148FAF761FF10BDE04A00200FB410B5C4
:1053B00086B01D9C2A2208A92048FAF73CFFBDF8B8
:1053C0004A101E480C38C186139981631499C16331
:1053D000092215A94030FAF72EFF9DF85D101748F5
:1053E0000C3880F849109DF85E1080F84A10189922
:1053F000C164199901651A9941651B9981651C99C8
:10540000C16504726420FBF757FB14220CA101A8AC
:10541000FAF711FF132201A9002000F01BF8002069
:10542000FFF7B2FF00F03EF8002004490C39086095
:10543000486006B010BC5DF814FB0000EC4E002084
:10544000AEA6200021007F220007A1C8A83F817FCF
:105450008D14AF00FEB504460D4616460A20CDE970
:10546000005602900348017A012322460C30FBF7D4
:1054700011FEFEBDE04E002038B504460548006828
:1054800000908DF80140022269460020FFF7E2FFFC
:1054900038BD0000545E0008014A1060516070473A
:1054A000E04E002010B5002407E00548802202FBF2
:1054B00004014020FFF7CEFF641C082CF5D310BD7B
:1054C000E04A00202DE9FF4105460A9F2A4800686E
:1054D0009DF804100844802845D2274840689DF86C
:1054E0000510084440283ED2002438E07F2D09DA18
:1054F000A5F120009DF8051000FB0140029911F86C
:10550000008008E0A5F1C0009DF8051000FB0140F7
:10551000039911F800809DF804601BE008F0010079
:1055200048B1154A52681119134A126890193A463F
:10553000FFF700FF0CE00FB9012300E000231A463B
:105540000D4B5B6819190C4B1B689819FFF7F2FE9D
:105550004FEA5808301EA6F10106DFD1641C9DF801
:105560000500A042C2D8044800689DF80410084411
:1055700001490860BDE8FF81E04E00202DE9FF43AE
:1055800085B00646DDF840900027354603E07F1CD5
:105590000A2095FBF0F5092DF9DC35467F1C002427
:1055A0000DE00A2095FBF0F100FB11503030C2B243
:1055B0002046641C01A90A540A2095FBF0F5092D28
:1055C000EFDC05F13000C2B22046641C01A90A5488
:1055D0000020085500BF0CE001A911F80080611EF1
:1055E000091A01AA515C1154611E091A02F80180BE
:1055F000401C04EBD472B0EB620FEDDBCDF80090F1
:1056000001A806A90EC900F003F809B0BDE8F083AF
:105610003FB581B00446089D06E00095207802A9B8
:105620000EC9FFF74FFF641C20780028F5D105B0A4
:1056300030BD0000002071E03A49095C022934D1F4
:105640003949095C394A125C91422ADC3649095CC5
:10565000374A32F81110374A9288114409B2324A57
:10566000125C334B23F812102F49095C1A4632F9A9
:105670001110FF2950DD4FF480712B4A125C23F882
:1056800012102949095C294A125C914203D1002178
:10569000244A115440E02449095C491C224A11540F
:1056A0003AE000211F4A115436E01E49095C0129E5
:1056B00032D11D49095C204A125C914229DB1A490A
:1056C000095C1B4A32F811101A4A9288891A09B2E9
:1056D000154A125C164B23F812101349095C1A463E
:1056E00032F91110002917DC00210F4A125C23F84F
:1056F00012100D49095C104A125C914203D100213D
:10570000084A115408E00849095C491E064A115428
:1057100002E00021034A1154411CC8B206288BDB69
:1057200070470000B4110020AE1100209E1100202F
:1057300040530020404F0020981100207047000087
:1057400070B50546FEF74EF900BF0E4800680E49D9
:10575000B0FBF1F0401E0D490968C86209480068B5
:105760000949B0FBF1F0401E0849C86000BF302471
:1057700004E01C20064941F82400641CB4F5646F61
:10578000F7DB70BDDC11002000350C000055002057
:10579000E011002010B54FF46463034A042103486C
:1057A000FCF7D2FC10BD0000E011002000550020E5
:1057B00078B5002400947AE0BDF80040C4F10705F4
:1057C0000124AC4004400CB1012400E00024012C71
:1057D0000DD1482503EB4304302606EBC404BDF885
:1057E000006034440834344E46F824500CE01C2544
:1057F00003EB4304302606EBC404BDF800603444D8
:1058000008342D4E46F82450BDF80040C4F1070579
:105810000124AC400C400CB1012400E00024012C18
:105820000CD1482503EB4304302606EBC404BDF835
:1058300000603444204E46F824500BE01C2503EB56
:105840004304302606EBC404BDF8006034441A4E0D
:1058500046F82450BDF80040C4F107050124AC40CF
:1058600014400CB1012400E00024012C0DD1482586
:1058700003EB4304302606EBC404BDF80060344457
:1058800010340D4E46F824500CE01C2503EB430465
:10589000302606EBC404BDF8006034441034064ED4
:1058A00046F82450BDF80040641CA4B20094BDF832
:1058B0000040082C80DB78BDE011002000000000D3
:1058C0000000000000101010101010001000282818
:1058D0002800000000000024247E24247E242400CC
:1058E0001038545038545438102054583028541418
:1058F0000800102828103448483400101010000008
:1059000000000000081020202020100800201008AF
:1059100008080810200010381028000000000000BF
:105920000010107C1010000000000000000010109B
:10593000200000000038000000000000000000000F
:1059400000100008081010101020200038444454A3
:1059500044444438001030501010101010003844E7
:1059600044040810207C003844041804044438001F
:1059700008182828487C0808007C40407804044423
:1059800038003844407844444438007C04081010FF
:1059900020202000384444384444443800384444EB
:1059A000443C0444380000001000000000100000D7
:1059B000001000000010102000000C3040300C00DF
:1059C000000000007C007C0000000000601804184B
:1059D00060000038440408101000100038444C5493
:1059E0005C4040380010282828287C444400784433
:1059F00044784444447800384440404040443800AF
:105A00007048444444444870007C40407C404040DE
:105A10007C007C4040784040404000384440405C3E
:105A2000444438004444447C444444440038101006
:105A30001010101038000404040404044438004416
:105A40004850605048484400404040404040407CFE
:105A500000446C6C54444444440044646454544CC6
:105A60004C4400384444444444443800784444445A
:105A70007840404000384444444444543804784416
:105A800044447848484400384440300804443800CE
:105A90007C1010101010101000444444444444443E
:105AA00038004444442828281010004444545454D6
:105AB0006C28280044282810102828440044442832
:105AC0002810101010007C0408101020407C0018D2
:105AD00010101010101018002020101010100808BE
